:1000000035C000005BC0000059C0000057C00000B0
:1000100055C0000053C0000051C000004FC0000098
:100020004DC000004BC0000049C0000047C00000A8
:1000300045C0000043C0000041C000003FC00000B8
:100040000C94DE093BC000000C946C0C0C94950CD5
:1000500035C0000033C0000031C000002FC00000D8
:100060002DC000002BC000007F0E8B0E11241FBE80
:10007000CFEFD8E0DEBFCDBF11E0A0E0B1E0E2E11C
:10008000F3E202C005900D92AE31B107D9F712E04C
:10009000AEE1B1E001C01D92A43AB107E1F710E072
:1000A000CAE6D0E004C02297FE010E944610C8367E
:1000B000D107C9F70E94970E0C947D11A1CFACE235
:1000C000B0E0E5E6F0E00C940D1029833A834B8311
:1000D0005C836D837E838F839887A986BA86CB865F
:1000E000DC86ED86FE860F87188B69807A808B8090
:1000F0009C8069A27AA28BA29CA2840173018FEFDB
:100100009FEFA0E0B0E0E822F9220A231B231401AC
:100110004424552469847A848B849C846DA27EA2B5
:100120008FA298A664015301A822B922CA22DB2219
:10013000340188249924C601B501A80197010E94C1
:10014000EE0F69A77AA78BA79CA7C401B3010E94F1
:10015000EE0F7B018C01C601B501A20191010E9445
:10016000EE0F5B016C01C401B3010E94EE0F9B0115
:10017000AC01EA0CFB1C0C1D1D1D69A47AA48BA408
:100180009CA4C401AA27BB27E80EF91E0A1F1B1F47
:10019000EA14FB040C051D0520F4205030404F4F9D
:1001A0005F4FC801AA27BB27820F931FA41FB51F4B
:1001B0008D8F9E8FAF8FB8A38701FF24EE2429A5D2
:1001C0003AA54BA55CA540705070E20EF31E041FCB
:1001D000151FE98EFA8E0B8F1C8FDE2CAA8CCB8C10
:1001E0006C8C8D8B8E8D8E8B8F8D8F8B88A1888F55
:1001F0002D853E854F85588969A17AA18BA19CA147
:100200000E94EE0F7B018C012D813E814F8158852C
:100210006DA17EA18FA198A50E94EE0FE60EF71E9C
:10022000081F191F6D897E898F89988D6E0D7F1D1E
:10023000801F911F6D8B7E8B8F8B988F7E892D2DCC
:100240003A2D4C2D562D8F89988DAC96E2E10C9469
:100250002910EF92FF920F931F937B018C0120E0F6
:1002600030E040E05FE48CD387FD0FC0C801B701E8
:1002700020E030E040E05FE487D1DCD39B01AC01BB
:10028000205030404040504805C0C801B701D2D38B
:100290009B01AC01B901CA011F910F91FF90EF9032
:1002A0000895A0E0B0E0E7E5F1E00C941110FC0146
:1002B000EA018081823008F438C1DB019C919230E0
:1002C00008F430C1843059F4943009F02EC1918182
:1002D00011968C911197981709F021C126C194307D
:1002E00009F420C19230B1F4823009F01EC1CA0174
:1002F000AF0128E0DA010D90AD01DC010D92CD01D6
:100300002150C1F7DB0111968C91119791818923BE
:1003100089830AC1823009F405C1C280D380DB0120
:1003200012966D907C901397248135814681578178
:100330001496ED90FD900D911C911797C6018619AA
:1003400097095C0197FF04C0AA24BB24A81AB90A24
:10035000B0E2AB16B1040CF061C0181619066CF5CA
:10036000370148010A2C04C09694879477946794C7
:100370000A94D2F781E090E0A0E0B0E00A2C04C03B
:10038000880F991FAA1FBB1F0A94D2F70197A109D2
:10039000B1098E219F21A023B123EE24FF248701E0
:1003A000E3940097A105B10519F4EE24FF24870119
:1003B000E628F728082919293CC00097D1F1CA0C72
:1003C000DB1C39014A010A2C04C096948794779467
:1003D00067940A94D2F781E090E0A0E0B0E00A2CA4
:1003E00004C0880F991FAA1FBB1F0A94D2F7019758
:1003F000A109B10982239323A423B52321E030E08E
:1004000040E050E00097A105B10519F420E030E08C
:10041000A90126293729482959290BC06C147D04C4
:1004200024F4EE24FF24870104C0630120E030E0BF
:10043000A9018181FB019181891709F445C08823B5
:1004400049F0D801C701821B930BA40BB50B9C018B
:10045000AD0104C02E193F09400B510B57FD04C0DC
:100460001982DB82CA820BC081E08983DB82CA8267
:1004700050954095309521953F4F4F4F5F4F2C83BE
:100480003D834E835F830DC0880F991FAA1FBB1F3A
:100490008C839D83AE83BF838A819B8101979B83DD
:1004A0008A838C819D81AE81BF819C01AD012150E9
:1004B0003040404050402F3FEFEF3E07EFEF4E07F8
:1004C000EFE35E0708F30BC08983DB82CA822E0D3F
:1004D0003F1D401F511F2C833D834E835F8383E06C
:1004E00088832C813D814E815F8157FF1DC0DA01D9
:1004F000C90181709070A070B0705695479537957E
:100500002795822B932BA42BB52B8C839D83AE83B5
:10051000BF838A819B8101969B838A8305C0E0E02B
:10052000F1E003C0FB0101C0FE01CF01CDB7DEB792
:10053000EEE00C942D10A0E2B0E0E1EAF2E00C94C1
:10054000191069837A838B839C832D833E834F8329
:10055000588789E0E82EF12CEC0EFD1ECE010196A5
:10056000B70187D38E010F5E1F4FCE010596B801EC
:1005700080D3C701B801AE01475E5F4F92DEABD2B8
:10058000A096E6E00C943510A0E2B0E0EAECF2E0D0
:100590000C94191069837A838B839C832D833E830B
:1005A0004F8358878E01075F1F4FCE010196B80118
:1005B00060D391E1E92EF12CEC0EFD1ECE010596E3
:1005C000B70157D38A8991E089278A8BC801B7017F
:1005D000AE01475E5F4F65DE7ED2A096E6E00C94EA
:1005E0003510A0E2B0E0E7EFF2E00C940D10698363
:1005F0007A838B839C832D833E834F835887CE01E0
:100600000196BE01675F7F4F34D3CE010596BE01D0
:100610006F5E7F4F2ED39985923078F08989823032
:10062000C0F0943019F4823041F4CBC0843019F416
:10063000923079F4C6C0923051F481E02A859A89CB
:10064000291709F480E08A87CE010996BCC0823060
:1006500051F481E02A859A89291709F480E08A8B70
:10066000CE014196B0C06D847E848F849888ED88D9
:10067000FE880F89188DE0E2F0E080E090E0DC0178
:10068000AA24BB24650120E030E0A901B301617018
:10069000707061157105D1F02E0D3F1D401F511F67
:1006A00015012601280E391E4A1E5B1E81E090E0CE
:1006B000A0E0B0E02E153F054007510718F080E09C
:1006C00090E0DC01820D931DA41DB51DAA0CBB1C7E
:1006D000CC1CDD1C17FF09C061E0262E312C412CFB
:1006E000512CA228B328C428D528319749F0EE0C04
:1006F000FF1C001F111F9694879477946794C6CFB0
:100700006B897C89EB85FC856E0F7F1F6E5F7F4F49
:100710007C8F6B8F61E0EA857A89E71709F460E0E6
:100720006A8F6B8D7C8D10C0FC01E170F07030978A
:1007300029F056954795379527955068B695A79512
:10074000979587956F5F7F4FB7FDEECF0CC0880FF1
:10075000991FAA1FBB1F57FD8160220F331F441F23
:10076000551F615070408030E0E09E07E0E0AE072A
:10077000E0E4BE0760F36B8F7C8F6FE7E62EF12C11
:10078000012D112DE822F9220A231B2360E4E6162D
:10079000F1040105110561F487FD0AC02115310539
:1007A0004105510529F0805C9F4FAF4FBF4F8078C6
:1007B0008D8F9E8FAF8FB8A383E0898FCE0149962E
:1007C00002C080E091E087D1A096E2E10C9429106C
:1007D000A8E1B0E0EEEEF3E00C94151069837A83A3
:1007E0008B839C832D833E834F8358878E01075FC5
:1007F0001F4FCE010196B8013CD281E1E82EF12CC9
:10080000EC0EFD1ECE010596B70133D299859230CC
:1008100008F483C08989823008F47BC02A853A892C
:1008200023272A87943011F0923021F4981709F089
:100830006CC071C0843039F41D861E861F86188AEC
:100840001C861B866AC0823019F484E0898765C0E3
:100850008B859C852B893C89821B930B9C878B877E
:100860002D853E854F855889ED88FE880F89188D26
:100870002E153F054007510738F4220F331F441F40
:10088000551F01979C878B876FE170E0A12CB12CDD
:10089000C12CA0E4DA2E80E090E0DC012E153F05AB
:1008A0004007510740F08A299B29AC29BD292E1900
:1008B0003F09400B510BD694C794B794A794220FCD
:1008C000331F441F551F6150704041F76FE7E62EFC
:1008D000F12C012D112DE822F9220A231B2360E4BB
:1008E000E616F1040105110561F487FD0AC0211522
:1008F00031054105510529F0805C9F4FAF4FBF4F37
:1009000080788D879E87AF87B88B8E01075F1F4FDA
:1009100004C0870102C000E011E0C801DCD0689685
:10092000EAE00C943110A8E1B0E0E9E9F4E00C94BD
:10093000191069837A838B839C832D833E834F8335
:1009400058878E01075F1F4FCE010196B80191D1E4
:1009500081E1E82EF12CEC0EFD1ECE010596B701CB
:1009600088D18985823038F08989823020F0C801A9
:10097000B701E8D101C08FEF6896E6E00C9435101E
:10098000A8E1B0E0E6ECF4E00C94191069837A83F6
:100990008B839C832D833E834F8358878E01075F13
:1009A0001F4FCE010196B80164D181E1E82EF12CF0
:1009B000EC0EFD1ECE010596B7015BD18985823014
:1009C00038F08989823020F0C801B701BBD101C05D
:1009D0008FEF6896E6E00C943510A8E1B0E0E3EF05
:1009E000F4E00C94191069837A838B839C832D83A4
:1009F0003E834F8358878E01075F1F4FCE010196BC
:100A0000B80137D181E1E82EF12CEC0EFD1ECE01AC
:100A10000596B7012ED18985823038F089898230D8
:100A200020F0C801B7018ED101C081E06896E6E0F0
:100A30000C943510ACE0B0E0E0E2F5E00C941D1051
:100A400069837A838B839C83CE010196BE016B5FA1
:100A50007F4F0FD18D81823081F1823070F18430EF
:100A600021F48E81882369F10AC02F81388537FDF2
:100A700024C06E812F3131053CF0662311F120E056
:100A800030E040E050E821C08EE190E0821B930B03
:100A900029853A854B855C8504C0569547953795E1
:100AA00027958A95D2F7662381F050954095309529
:100AB00021953F4F4F4F5F4F08C020E030E0A90124
:100AC00004C02FEF3FEF4FEF5FE7B901CA012C964B
:100AD000E2E00C943910EF92FF920F931F93CF93A3
:100AE000DF93FC01248135814681578161818081BA
:100AF000823020F44061EFEFF0E0A3C0843009F4CD
:100B00009BC0823009F492C0211531054105510581
:100B100009F48FC00280F381E02D8FEFE238F807EF
:100B20000CF05AC0C2E8DFEFCE1BDF0BCA31D10593
:100B30006CF579018A010C2E04C016950795F7947F
:100B4000E7940A94D2F781E090E0A0E0B0E00C2EA8
:100B500004C0880F991FAA1FBB1F0A94D2F70197E0
:100B6000A109B10982239323A423B52321E030E016
:100B700040E050E00097A105B10519F420E030E015
:100B8000A9012E293F29402B512B03C020E030E042
:100B9000A901DA01C9018F779070A070B07080341C
:100BA0009105A105B10539F427FF09C0205C3F4F2D
:100BB0004F4F5F4F04C0215C3F4F4F4F5F4FE1E00D
:100BC000F0E0203080E0380780E0480780E45807F4
:100BD00028F5E0E0F0E022C0E038F1056CF5E158DE
:100BE000FF4FDA01C9018F779070A070B070803428
:100BF0009105A105B10539F427FF09C0205C3F4FDD
:100C00004F4F5F4F04C0215C3F4F4F4F5F4F57FF27
:100C100005C05695479537952795319687E05695A7
:100C20004795379527958A95D1F70BC0E0E0F0E01E
:100C300005C0E0E0F0E005C0EFEFF0E020E030E0DC
:100C4000A9018E2F879588278795942F9F77679581
:100C500066276795E695E22EA92FA82BFE2FF62B87
:100C6000622F732F8A2F9F2FCDB7DEB7E6E00C944B
:100C70003510DC01FB012C9111963C9111971296D5
:100C80008C911297482F4F7750E0982F991F9927F2
:100C9000991F13966C911397862F880F892B90E0DC
:100CA000661F6627661F6183009739F52115310598
:100CB0004105510511F482E029C082E89FEF93833A
:100CC000828367E0220F331F441F551F6A95D1F7B7
:100CD00083E0808309C0220F331F441F551F828188
:100CE0009381019793838283203080E0380780E0EE
:100CF000480780E4580778F320C08F3F910579F4C6
:100D0000211531054105510519F484E080830895CA
:100D100044FF03C081E0808310C010820EC08F5753
:100D200090409383828383E0808387E0220F331F88
:100D3000441F551F8A95D1F7506424833583468319
:100D400057830895FC01DB019081923008F449C07B
:100D50008C91823008F445C0943051F46181843024
:100D6000B1F511962C91119730E0261B310941C045
:100D7000843021F0923041F48230B1F111968C919F
:100D800011978823A1F12DC06181823001F1119664
:100D90008C9111976817D9F42281338112968D9125
:100DA0009C9113978217930794F028173907BCF08A
:100DB000248135814681578114968D919D910D90A6
:100DC000BC91A02D82179307A407B50718F46623DA
:100DD00041F00DC0281739074A075B0728F466233E
:100DE00031F021E030E005C020E030E002C02FEF1C
:100DF0003FEFC9010895DF93CF93CDB7DEB7809160
:100E00001E0190911F01CF91DF910895DF93CF9341
:100E100000D0CDB7DEB79A83898389819A810E94F9
:100E2000E4100F900F90CF91DF910895DF93CF934F
:100E300000D000D000D0CDB7DEB79A8389834B8332
:100E40005C836D837E8389819A8122E131E0FC019C
:100E500031832083E981FA8126813781408551855C
:100E60006285738584859585E981FA812683378338
:100E7000408751876287738784879587E981FA81E4
:100E80002681378140855185628573858485958566
:100E90009923E1F4992381F58823C1F4882361F52E
:100EA0007723A1F4772341F5662381F4662321F5A6
:100EB000552361F4552301F5442341F44423E1F41F
:100EC000353F20F4343FC1F42532B0F080E094E2A5
:100ED000A4EFB0E02B813C814D815E81BC01CD014E
:100EE0000E94CC0FDA01C90129813A81F90182837C
:100EF0009383A483B58320C2E981FA812681378157
:100F0000408551856285738584859585992309F08F
:100F100060C0992309F5882309F05BC08823E1F4B8
:100F2000772309F056C07723B9F4662309F051C03E
:100F3000662391F4552309F04CC0552369F44423EA
:100F400009F047C0442341F4353F08F042C0343F24
:100F500019F4243208F03DC0E981FA8126813781F5
:100F60004085518562857385848595859923E1F453
:100F7000992379F58823C1F4882359F57723A1F4BF
:100F8000772339F5662381F4662319F5552361F437
:100F90005523F9F4442341F44423D9F43F3120F498
:100FA0003E31B9F42538A8F080E894E8AEE1B0E02D
:100FB0002B813C814D815E81BC01CD01EDD7DA01F1
:100FC000C90129813A81F90182839383A483B5837E
:100FD000B3C1E981FA8126813781408551856285D7
:100FE000738584859585992309F060C0992309F557
:100FF000882309F05BC08823E1F4772309F056C009
:101000007723B9F4662309F051C0662391F4552380
:1010100009F04CC0552369F4442309F047C0442328
:1010200041F43F3108F042C03E3119F4243808F051
:101030003DC0E981FA8126813781408551856285ED
:101040007385848595859923E1F4992379F588231F
:10105000C1F4882359F57723A1F4772339F5662362
:1010600081F4662319F5552361F45523F9F44423DB
:1010700041F44423D9F4383020F43730B9F4223A1B
:10108000A8F080E291EAA7E0B0E02B813C814D819D
:101090005E81BC01CD0180D7DA01C90129813A8185
:1010A000F90182839383A483B58346C1E981FA81E0
:1010B0002681378140855185628573858485958534
:1010C000992309F060C0992309F5882309F05BC0D2
:1010D0008823E1F4772309F056C07723B9F4662317
:1010E00009F051C0662391F4552309F04CC05523F3
:1010F00069F4442309F047C0442341F4383008F030
:1011000042C0373019F4213A08F03DC0E981FA8134
:1011100026813781408551856285738584859585D3
:101120009923E1F4992379F58823C1F4882359F5AB
:101130007723A1F4772339F5662381F4662319F523
:10114000552361F45523F9F4442341F44423D9F49D
:10115000343020F43330B9F4213DA8F080E990ED2B
:10116000A3E0B0E02B813C814D815E81BC01CD01CB
:1011700013D7DA01C90129813A81F9018283938366
:10118000A483B583D9C0E981FA812681378140855E
:1011900051856285738584859585992309F060C0A2
:1011A000992309F5882309F05BC08823E1F47723AC
:1011B00009F056C07723B9F4662309F051C06623BD
:1011C00091F4552309F04CC0552369F4442309F0E8
:1011D00047C0442341F4343008F042C0333019F49E
:1011E000203D08F03DC0E981FA81268137814085A4
:1011F000518562857385848595859923E1F49923CA
:1012000079F58823C1F4882359F57723A1F477234E
:1012100039F5662381F4662319F5552361F45523C6
:10122000F9F4442341F44423D9F4323020F431302A
:10123000B9F4293EA8F088E498EEA1E0B0E02B8153
:101240003C814D815E81BC01CD01A6D6DA01C90188
:1012500029813A81F90182839383A483B5836CC089
:10126000E981FA81268137814085518562857385C0
:1012700084859585992309F05FC0992309F5882312
:1012800009F05AC08823E1F4772309F055C0772389
:10129000B9F4662309F050C0662391F4552309F090
:1012A0004BC0552369F4442309F046C0442341F45C
:1012B000323008F041C0313019F4283E08F03CC00B
:1012C000E981FA8126813781408551856285738560
:1012D000848595859923E1F4992371F58823C1F4D8
:1012E000882351F57723A1F4772331F5662381F420
:1012F000662311F5552361F45523F1F4442341F499
:101300004423D1F4332321F43323B1F4253FA0F057
:1013100084E294EFA0E0B0E02B813C814D815E81BE
:10132000BC01CD0139D6DA01C90129813A81F9011F
:1013300082839383A483B58389819A8190931F01CB
:1013400080931E018EE690E021E0FC01208326962A
:101350000FB6F894DEBF0FBECDBFCF91DF910895D9
:10136000DF93CF9300D0CDB7DEB79A83898389818D
:101370009A8122E131E0FC013183208380E090E01A
:1013800081709070882319F089819A813FDD0F90D8
:101390000F90CF91DF910895DF93CF9300D0CDB719
:1013A000DEB79A83898389819A81DADF89819A817C
:1013B0002DDD0F900F90CF91DF9108951F920F9226
:1013C0000FB60F9211242F933F934F935F936F9318
:1013D0007F938F939F93AF93BF93EF93FF93DF938D
:1013E000CF93CDB7DEB707DD13D0CF91DF91FF915B
:1013F000EF91BF91AF919F918F917F916F915F918D
:101400004F913F912F910F900FBE0F901F90189505
:101410002F923F924F925F926F927F928F929F9204
:10142000AF92BF92CF92DF92EF92FF920F931F93F2
:10143000DF93CF93CDB7DEB72A970FB6F894DEBF10
:101440000FBECDBF9A838983E0911E01F0911F01E9
:10145000A684B784C088D188E288F3880489158976
:101460002224239433244424552466247724882476
:1014700099242A2D220DA1E0A9872A1508F01986A2
:101480003B2D330DB1E0BA873B1508F01A86A985CC
:10149000A30FA987B1E0BB83A985A31708F01B821E
:1014A000BA85AB81BA2BBA8739854C2D440DB1E092
:1014B000B9874C1508F01986AA85A40FAA87B1E050
:1014C000BC83AA85A41708F01C82B985AC81BA2B0D
:1014D000B9874A855D2D550DB1E0BA875D1508F0D5
:1014E0001A86A985A50FA987B1E0BD83A985A5178F
:1014F00008F01D82BA85AD81BA2BBA8759856E2D49
:10150000660DB1E0B9876E1508F01986AA85A60F99
:10151000AA87B1E0BE83AA85A61708F01E82B98506
:10152000AE81BA2BB9876A857F2D770DB1E0BA8776
:101530007F1508F01A86A985A70FA987B1E0BF8398
:10154000A985A71708F01F82BA85AF81BA2BBA8781
:101550007985802F880DA1E0801708F0A0E0BA857A
:10156000B80FBA87B1E0B887BA85B81708F01886FF
:10157000B885AB2B8A85912F990DA90F9A2FA22E92
:10158000B32EC42ED52EE62EF72E082F192FA686A1
:10159000B786C08AD18AE28AF38A048B158B2A9691
:1015A0000FB6F894DEBF0FBECDBFCF91DF911F9174
:1015B0000F91FF90EF90DF90CF90BF90AF909F90F2
:1015C0008F907F906F905F904F903F902F900895F5
:1015D000DF93CF9300D0CDB7DEB79A83898385E4BC
:1015E00090E0FC0110820F900F90CF91DF91089551
:1015F000DF93CF9300D0CDB7DEB79A83898385E49C
:1016000090E021E0FC0120830F900F90CF91DF91BB
:1016100008952F923F924F925F926F927F928F9296
:101620009F92AF92BF92CF92DF92EF92FF920F9371
:101630001F93DF93CF9300D0CDB7DEB79A83898312
:1016400089819A81FC01A684FC01B784FC01C088D1
:10165000FC01D188FC01E288FC01F388FC010489CB
:10166000FC01158989819A81FC0182819381A48181
:10167000B5811C012D01BB0F880B982FDC01682E52
:10168000782E882E982E2A2D3B2D4C2D5D2D6E2DDB
:101690007F2D802F912FA22CB32CC42CD52CE62C7F
:1016A000F72C082D192D0E945F00A22EB32EC42EF8
:1016B000D52EE62EF72E082F192F2A2D3B2D4C2D37
:1016C0005D2D6E2D7F2D802F912FA22EB32EC42E37
:1016D000D52EE62EF72E082F192F2A2D3B2D4C2D17
:1016E0005D2D6E2D7F2D802F912F0F900F90CF911C
:1016F000DF911F910F91FF90EF90DF90CF90BF90FF
:10170000AF909F908F907F906F905F904F903F90A1
:101710002F900895DF93CF9300D0CDB7DEB79A8393
:10172000898389819A812AD189819A8180549F4FA6
:1017300025D185EC90E0FC01108284EC90E027E656
:10174000FC01208382EC90E026E0FC01208381EC08
:1017500090E028E9FC0120830F900F90CF91DF915A
:1017600008958F929F92AF92BF92CF92DF92EF92A5
:10177000FF920F931F93DF93CF93CDB7DEB72A97D6
:101780000FB6F894DEBF0FBECDBF9A8389830B835B
:101790001C832D833E834F83588769877A8780E235
:1017A00091E08B809C80AD80BE80CF80D884E9841E
:1017B000FA84082D192D2A2D3B2D4C2D5D2D6E2DD3
:1017C0007F2D32D181EC90E021EC30E0F9012081D5
:1017D0002062FC0120832A960FB6F894DEBF0FBE6C
:1017E000CDBFCF91DF911F910F91FF90EF90DF90D0
:1017F000CF90BF90AF909F908F9008958F929F92BF
:10180000AF92BF92CF92DF92EF92FF920F931F930E
:10181000DF93CF93CDB7DEB786EC90E0FC018081FB
:10182000882E9924AA24BB24CC24DD24760180EEC2
:1018300091E0082D192D2A2D3B2D4C2D5D2D6E2D5F
:101840007F2DF2D0CF91DF911F910F91FF90EF90FC
:10185000DF90CF90BF90AF909F908F9008958F9220
:101860009F92AF92BF92CF92DF92EF92FF920F932F
:101870001F93DF93CF93CDB7DEB780E291E0E6D13F
:101880008823A1F00F2EF6EC8F2E9924F02D80E204
:1018900091E045D1A22EB32EC42ED52EE62EF72EE2
:1018A000082F192F8A2DF401808309C081EC90E064
:1018B00021EC30E0F90120812F7DFC012083CF91C4
:1018C000DF911F910F91FF90EF90DF90CF90BF902D
:1018D000AF909F908F9008951F920F920FB60F9226
:1018E00011242F933F934F935F936F937F938F9325
:1018F0009F93AF93BF93EF93FF93DF93CF93CDB7B6
:10190000DEB77CDFCF91DF91FF91EF91BF91AF9177
:101910009F918F917F916F915F914F913F912F9107
:101920000F900FBE0F901F9018951F920F920FB639
:101930000F9211242F933F934F935F936F937F9355
:101940008F939F93AF93BF93EF93FF93DF93CF93C7
:10195000CDB7DEB784DFCF91DF91FF91EF91BF91DB
:10196000AF919F918F917F916F915F914F913F9137
:101970002F910F900FBE0F901F901895DF93CF936C
:1019800000D0CDB7DEB79A83898389819A812AE115
:1019900031E0FC013183208389819A8186549F4FF5
:1019A000FC011182108289819A8184549F4FFC012D
:1019B0001182108289819A8182549F4FFC01118289
:1019C00010820F900F90CF91DF910895DF93CF9306
:1019D00000D0CDB7DEB79A83898389819A812AE1C5
:1019E00031E0FC013183208382E090E081709070CF
:1019F000882319F089819A8109DA0F900F90CF918D
:101A0000DF910895DF93CF9300D0CDB7DEB79A83EF
:101A1000898389819A81DADF89819A81F7D90F9048
:101A20000F90CF91DF9108950F931F93DF93CF9382
:101A3000CDB7DEB72A970FB6F894DEBF0FBECDBF85
:101A40009A8389830B831C832D833E834F8358871E
:101A500069877A8789819A8186549F4FFC0120810A
:101A6000318149815A81C901880F991F880F991FB7
:101A7000880F991F840F951F02964B81FC014083AC
:101A80004C81FC0141834D81FC0142834E81FC016C
:101A900043834F81FC0144834885FC01458349858C
:101AA000FC0146834A85FC0147832F5F3F4F8981B4
:101AB0009A8186549F4FFC013183208389819A81CA
:101AC00086549F4FFC018081918121E087319105EF
:101AD00009F020E0222339F089819A8186549F4FB2
:101AE000FC011182108289819A8182549F4FFC01EE
:101AF000808191819C012F5F3F4F89819A8182541F
:101B00009F4FFC01318320832A960FB6F894DEBFE5
:101B10000FBECDBFCF91DF911F910F910895AF926E
:101B2000BF92CF92DF92EF92FF920F931F93DF93BA
:101B3000CF93CDB7DEB72A970FB6F894DEBF0FBEAE
:101B4000CDBF9A87898789859A8584549F4FFC01E8
:101B50002081318149855A85C901880F991F880FD5
:101B6000991F880F991F840F951F0296FC014081D1
:101B70004983FC0141814A83FC0142814B83FC0182
:101B800043814C83FC0144814D83FC0145814E839C
:101B9000FC0146814F83FC01878188872F5F3F4F7F
:101BA00089859A8584549F4FFC01318320838985E0
:101BB0009A8584549F4FFC018081918121E0873177
:101BC000910509F020E0222339F089859A85845413
:101BD0009F4FFC011182108289859A8582549F4F04
:101BE000FC01808191819C012150304089859A853A
:101BF00082549F4FFC013183208329813A814B819C
:101C00005C816D817E818F819885A22EB32EC42E3A
:101C1000D52EE62EF72E082F192F2A2D3B2D4C2DD1
:101C20005D2D6E2D7F2D802F912F2A960FB6F89463
:101C3000DEBF0FBECDBFCF91DF911F910F91FF90FF
:101C4000EF90DF90CF90BF90AF900895DF93CF9348
:101C500000D0CDB7DEB79A83898389819A81825477
:101C60009F4FFC018081918121E0181619060CF02C
:101C700020E0822F0F900F90CF91DF910895DF9396
:101C8000CF9300D0CDB7DEB79A83898389819A81BB
:101C900080549F4F9BDE89819A8198DE0F900F9030
:101CA000CF91DF910895DF93CF9300D000D0CDB7CF
:101CB000DEB79A8389837C836B8389819A818130A3
:101CC000910549F48B819C812FEF8F3F920719F486
:101CD00080E291E01FDD89819A81009749F48B8130
:101CE0009C812FEF8F3F920719F480E291E0C7DFCC
:101CF0000F900F900F900F90CF91DF910895DF9389
:101D0000CF93CDB7DEB781E090E06FEF7FEFCBDF11
:101D1000CF91DF910895DF93CF93CDB7DEB780E009
:101D200090E06FEF7FEFBFDFCF91DF9108958F924B
:101D30009F92AF92BF92CF92DF92EF92FF920F935A
:101D40001F93DF93CF93CDB7DEB7C65BD1400FB6FD
:101D5000F894DEBF0FBECDBFCE01819640E850E0C3
:101D600060E070E063D8CE01C796D4DC83E290E0F7
:101D700023E2FC01208384E290E024E2FC01208342
:101D800085E290E020E8FC0120837894CE018196E2
:101D90002FDC80E090E0A0E2B1E489879A87AB87EE
:101DA000BC8769857A858B859C852BEA3AEA4AEA65
:101DB00050E40E94F102DC01CB018D879E87AF8742
:101DC000B88B11E06D857E858F85988920E030E0A5
:101DD00040E85FE30E94ED0488230CF010E011233B
:101DE00019F081E0898BA7C011E06D857E858F8514
:101DF000988920E030E04FE753E40E9493041816DE
:101E00000CF010E0112309F48DC069857A858B856B
:101E10009C8520E030E04AE754E40E94E803DC01BE
:101E2000CB018A8B9B8BAC8BBD8B6A897B898C8920
:101E30009D8920E030E04AE755E40E94F102DC0190
:101E4000CB018E8B9F8BA88FB98F11E06E897F8914
:101E5000888D998D20E030E040E85FE30E94ED043A
:101E600088230CF010E0112329F081E090E09B8F93
:101E70008A8F4AC011E06E897F89888D998D20E014
:101E80003FEF4FE757E40E94930418160CF010E060
:101E9000112381F16A897B898C899D8920E030E05A
:101EA00040E251E40E94F102DC01CB01BC01CD0112
:101EB0000E942901DC01CB019B8F8A8F12C080E92F
:101EC00091E09D8F8C8F8C8D9D8D8C01C801019729
:101ED000F1F78C011D8F0C8F8A8D9B8D01979B8F45
:101EE0008A8F21E08A8D9B8D009709F420E02223C0
:101EF00031F728C06E897F89888D998D0E942901CC
:101F0000DC01CB019B8F8A8F8A8D9B8D9F8F8E8F5B
:101F10008E8D9F8D8C01F8013197F1F78F011F8F06
:101F20000E8F10C06D857E858F8598890E9429014E
:101F3000DC01CB01898B898988A388A1182F1A9588
:101F4000F1F718A3CE01819643DBCE01819661DBC8
:101F5000A22EB32EC42ED52EE62EF72E082F192F23
:101F6000A982BA82CB82DC82ED82FE820F8318873F
:101F7000CE01C79689809A80AB80BC80CD80DE8000
:101F8000EF80F884082D192D2A2D3B2D4C2D5D2D29
:101F90006E2D7F2DE6DBFACEA1E21A2EAA1BBB1B0B
:101FA000FD010DC0AA1FBB1FEE1FFF1FA217B30725
:101FB000E407F50720F0A21BB30BE40BF50B661F3B
:101FC000771F881F991F1A9469F7609570958095FF
:101FD00090959B01AC01BD01CF010895629FD00196
:101FE000739FF001829FE00DF11D649FE00DF11DD4
:101FF000929FF00D839FF00D749FF00D659FF00D83
:102000009927729FB00DE11DF91F639FB00DE11D6F
:10201000F91FBD01CF01112408952F923F924F92D5
:102020005F926F927F928F929F92AF92BF92CF9268
:10203000DF92EF92FF920F931F93CF93DF93CDB771
:10204000DEB7CA1BDB0B0FB6F894DEBF0FBECDBFE9
:1020500009942A88398848885F846E847D848C84BA
:102060009B84AA84B984C884DF80EE80FD800C81C3
:102070001B81AA81B981CE0FD11D0FB6F894DEBFA6
:102080000FBECDBFED010895EE0FFF1F0590F49137
:10209000E02D0994CF93DF938230910510F482E014
:1020A00090E0E091A202F091A30240E050E020E035
:1020B00030E026C06081718168177907E0F0681709
:1020C000790781F4828193812115310531F0D9019D
:1020D00013969C938E9312972BC09093A302809398
:1020E000A20226C04115510519F06417750718F4AE
:1020F000AB01E901DF019F0172816381E72FF62FB8
:102100003097C1F64115510501F1481B590B443078
:10211000510580F412968D919C911397209719F098
:102120009B838A8304C09093A3028093A202FD0143
:10213000329646C0FD01E40FF51F81939193425002
:10214000504011965C934E933BC02091A002309179
:10215000A1022115310541F420910A0130910B01B2
:102160003093A1022093A00220910C0130910D0127
:102170002115310541F42DB73EB74091080150912A
:102180000901241B350BE091A002F091A102E21796
:10219000F307A0F42E1B3F0B2817390778F0AC018A
:1021A0004E5F5F4F2417350748F04E0F5F1F509367
:1021B000A1024093A0028193919302C0E0E0F0E07D
:1021C000CF01DF91CF910895CF93DF93009709F46A
:1021D00091C0FC013297138212826091A202709129
:1021E000A3026115710581F420813181280F391F07
:1021F0008091A0029091A1028217930799F5F09324
:10220000A102E093A00276C0DB0180E090E002C072
:10221000CD01D901AE17BF0748F412962D913C911C
:10222000139721153105A1F7CD0121C0B383A283F6
:10223000EF01499159919E01240F351FA217B30751
:1022400079F42D913C911197240F351F2E5F3F4F4C
:102250003183208312962D913C91139733832283EF
:10226000009729F4F093A302E093A20243C0DC019B
:102270001396FC93EE9312974D915D91A40FB51FA9
:10228000EA17FB0769F420813181240F351F2E5F87
:102290003F4FEC0139832883228133813B832A839A
:1022A000E0E0F0E002C0FB01BC01DB0112968D9181
:1022B0009C9113970097B9F79B012E5F3F4F8D912B
:1022C0009C911197820F931F4091A0025091A102FF
:1022D0004817590779F4309729F41092A302109205
:1022E000A20202C013821282225030403093A10217
:1022F0002093A002DF91CF91089510E0CAE6D0E0CC
:1023000003C0FE01C3DE2296CC36D107D1F7F89484
:02231000FFCFFD
:1023120000000000000000002000A40200000000F5
:0E2322000000B009CC0900000000E60C020D1E
:00000001FF
